:020000040800F2
:10000000180900209D0500088102000883020008ED
:100010008F0200089B020008A702000800000000F1
:10002000000000000000000000000000B302000813
:10003000B502000800000000B3050008B702000880
:10004000B7050008B7050008B7050008BB0200089F
:10005000B7050008B7050008B9020008B705000891
:10006000B7050008B7050008B7050008B705000880
:10007000B7050008B7050008B7050008B705000870
:10008000B7050008B7050008B7050008B705000860
:10009000B7050008B7050008B7050008B705000850
:1000A000B7050008B7050008B7050008B705000840
:1000B000B7050008B7050008B7050008B705000830
:1000C000B7050008B7050008B7050008B705000820
:1000D000B7050008DB140008EF2C0008B70500087E
:1000E000B7050008B7050008B7050008B705000800
:1000F000B7050008B7050008B7050008B7050008F0
:10010000B7050008B7050008B7050008B7050008DF
:10011000B7050008B7050008B7050008B7050008CF
:10012000B7050008B7050008B7050008B7050008BF
:1001300000F002F800F094F80AA090E8000C824465
:100140008344AAF10107DA4501D100F089F8AFF242
:10015000090EBAE80F0013F0010F18BFFB1A43F0A5
:1001600001031847C4490000E4490000103A24BFC5
:1001700078C878C1FAD8520724BF30C830C144BF0C
:1001800004680C607047000000230024002500264E
:10019000103A28BF78C1FBD8520728BF30C148BFEA
:1001A0000B6070476E2903F0AD81702903F00D8359
:1001B000662904F04384652904F04084672904F02B
:1001C0003D846129AFF3008003681B0A28BF41F01A
:1001D0008001692902F0EA86642902F0E786752920
:1001E00002F0E4866F2903F09A82782903F0D9821D
:1001F000E92903F03582E42903F03282F52903F07E
:100200002F82EF2903F09782F82903F0D882036840
:10021000DB0928BF41F08001632903F0B68173290F
:1002200003F0BB81E32903F0F185F32903F0F685A0
:10023000002070471FB59DE8030003F09BF803F012
:100240008DFE04000020002104F0CCFB401C606007
:100250000020002104F0DCFBE0601FBD10B510BDE4
:1002600003F057FE1146FFF7E5FF01F05FF903F0D9
:1002700039FF03B4FFF7F2FF03BC03F069FF00008E
:1002800070470EA11C4801F004F900BFFEE71BA156
:10029000194801F0FEF800BFFEE727A1164801F05B
:1002A000F8F800BFFEE733A1134801F0F2F800BFF1
:1002B000FEE7704770477047704770470D0A2A2A5B
:1002C0002A2A2A2A2A2A2A2A2A2A2A2A2A2A2A2A8E
:1002D0002A486172644661756C745F48616E646C33
:1002E00065722A2A2A2A2A2A2A2A2A2A2A2A2A2AEB
:1002F0002A2A2A2A2A0D0A00003801400D0A2A2A31
:100300002A2A2A2A2A2A2A2A2A2A2A2A2A2A2A2A4D
:100310002A4D656D4D616E6167655F48616E646C05
:1003200065722A2A2A2A2A2A2A2A2A2A2A2A2A2AAA
:100330002A2A2A2A2A0D0A000D0A2A2A2A2A2A2AC1
:100340002A2A2A2A2A2A2A2A2A2A2A2A2A42757361
:100350004661756C745F48616E646C65722A2A2A06
:100360002A2A2A2A2A2A2A2A2A2A2A2A2A2A2A2AED
:100370000D0A00000D0A2A2A2A2A2A2A2A2A2A2AAB
:100380002A2A2A2A2A2A2A2A2A5573616765466157
:10039000756C745F48616E646C65722A2A2A2A2A19
:1003A0002A2A2A2A2A2A2A2A2A2A2A2A2A2A0D0AEA
:1003B000000000000CB50020019000906C4800681F
:1003C00040F480306A49086000BF6948006800F462
:1003D000003000900198401C0190009818B90198D5
:1003E000B0F5A06FF1D16248006800F4003010B1A0
:1003F0000120009001E0002000900098012843D1E6
:100400005C48006840F010005A49086008460068DF
:1004100020F0030008600846006840F00200086011
:10042000534840685249486008464068486008465A
:10043000406840F4806048600846406820F47C10C2
:1004400048600846406840F48810486008460068E4
:1004500040F08070086000BF4548006800F0007000
:100460000028F9D04248406820F003004049486025
:100470000846406840F00200486000BF3C484068C1
:1004800000F00C000828F9D10CBD10B5FFF792FF61
:1004900010BD10B53648006840F0010034490860CE
:1004A00008464068344908403149486008460068B9
:1004B000324908402E4908600846006820F4802030
:1004C00008600846406820F4FE0048604FF41F00B2
:1004D0008860FFF7DAFF4FF000602949086010BD1F
:1004E00010B5002100200022214B5B6803F00C01B5
:1004F00021B1042906D0082928D107E0214B224C3C
:10050000236027E0214B204C236023E0184B5B68DD
:1005100003F47010164B5B6803F48032022303EB84
:10052000904022B91A4B4343174C23600DE0104B07
:100530005B6803F4003323B1164B4343124C236032
:1005400003E0124B4343104C236003E00D4B0E4C71
:10055000236000BF00BF064B5B68C3F303130E4C60
:10056000E15C094B1B68CB40074C236010BD0000C9
:1005700000100240002002400000FFF8FFFFF6FEDE
:1005800008ED00E000127A0000000020001BB70018
:1005900000093D00808D5B00040000200948804771
:1005A00009480047FEE7FEE7FEE7FEE7FEE7FEE755
:1005B000FEE7FEE7FEE7FEE704480549054A064B6D
:1005C0007047000093040008310100081801002062
:1005D00018090020180500201805002031490143A2
:1005E000314A1160704770B5002100230F22C47892
:1005F00004B32D4C246804F4E064C4F5E064210ADB
:10060000C1F10403CA40447804FA03F18478144029
:1006100021430901254C0678A155047804F01F05F3
:100620000124AC4005786D11AD0005F1E025C5F859
:10063000004109E0047804F01F050124AC401C4D82
:100640000678761145F8264070BD1A4A0A400243E2
:10065000154B1B1F1A60704739B1134A121D1268DF
:100660000243114B1B1D1A6006E00F4A121D12684F
:1006700082430D4B1B1D1A607047042808D14FF0B0
:10068000E021096941F004014FF0E022116107E027
:100690004FF0E021096921F004014FF0E0221161DF
:1006A000704700000000FA050CED00E000E400E0F7
:1006B00080E100E080FFFF1F10B50446CC48844273
:1006C00008D10121042000F02DFB0021042000F0BE
:1006D00029FB46E0C748844208D10121082000F0E8
:1006E00021FB0021082000F01DFB3AE0C2488442B3
:1006F00008D10121102000F015FB0021102000F08E
:1007000011FB2EE0BD48844208D10121202000F0D9
:1007100009FB0021202000F005FB22E0B8488442BC
:1007200008D10121402000F0FDFA0021402000F016
:10073000F9FA16E0B348844208D10121802000F084
:10074000F1FA0021802000F0EDFA0AE0AE48844280
:1007500007D10121801500F0E5FA0021A01500F075
:10076000E1FA10BD10B50121084600F0DBFA0021C6
:10077000012000F0D7FA10BD2DE9F0410246002516
:100780000026002000230024002791F803C00CF06D
:100790000F0591F803C00CF0100CBCF1000F03D052
:1007A00091F802C04CEA050591F800C0BCF1000FB9
:1007B00031D0146800202BE04FF0010C0CFA00F34C
:1007C000B1F800C00CEA03069E4220D183004FF02E
:1007D0000F0C0CFA03F7BC4305FA03FC4CEA0404C3
:1007E00091F803C0BCF1280F06D14FF0010C0CFAB0
:1007F00000FCC2F814C00AE091F803C0BCF1480F35
:1008000005D14FF0010C0CFA00FCC2F810C0401CDE
:100810000828D1D31460B1F800C0BCF1FF0F34DD5B
:10082000546800202EE000F1080C4FF0010808FA8F
:100830000CF3B1F800C00CEA03069E4221D18300FC
:100840004FF00F0C0CFA03F7BC4305FA03FC4CEA1B
:10085000040491F803C0BCF1280F05D100F1080C85
:1008600008FA0CF8C2F8148091F803C0BCF1480FE4
:1008700007D100F1080C4FF0010808FA0CF8C2F893
:100880001080401C0828CED35460BDE8F0814FF69C
:10089000FF710180022181700421C17070470246FE
:1008A000002093680B400BB1012000E0002070474E
:1008B0000146886880B2704702460020D3680B402A
:1008C0000BB1012000E0002070470146C86880B2EB
:1008D000704701617047416170470AB1016100E0F2
:1008E00041617047C16070474FF480320A438261B2
:1008F0008161826182698269704702460020434BB0
:1009000018684FF68073184040EA021008433F4BC6
:10091000186070473E49C8617047F0B50A46002329
:1009200000240021002500F00046B6F1004F02D15E
:10093000364EF16901E0354E7168C0F3034583B26C
:1009400000F44016B6F5401F08D121F070612F4E1B
:10095000766826F070662D4F7E6012E000F48016F7
:10096000B6F5801F06D1032606FA05F4A14341F02F
:10097000706106E0460D360103FA06F6B14341F018
:10098000706122B1460D360103FA06F6314300F0DC
:100990000046B6F1004F02D11C4EF16101E01B4E42
:1009A0007160F0BD30B500228B071C0F0F2303FAD6
:1009B00004F2164B08338C1053F824309343134C35
:1009C00008348D1044F8253023468C1053F8243019
:1009D0008C07240F00FA04F423430C4C08348D10C8
:1009E00044F8253030BD0A49DC310860704700000A
:1009F00000080140000C01400010014000140140BB
:100A000000180140001C014000200140000001408E
:100A100000002042DF48006840F00100DD49086026
:100A200008464068DC490840DA49486008460068E2
:100A3000DA490840D74908600846006820F4802059
:100A400008600846406820F4FE0048604FF41F002C
:100A500088607047CF49096821F48031CD4A116020
:100A60001146096821F480211160B0F5803F03D060
:100A7000B0F5802F0ED106E0C649096841F48031F7
:100A8000C44A116007E0C349096841F4A021C14A82
:100A9000116000E000BF00BF704710B501460022A2
:100AA000002300204A11012A02D1BA4C236806E033
:100AB000022A02D1B74C236A01E0B64C636A01F006
:100AC0001F02012494401C400CB1012000E00020D2
:100AD00010BD38B5002000900024002500BF312053
:100AE000FFF7DBFF05460098401C00900098B0F52A
:100AF000A06F01D0002DF2D03120FFF7CEFF08B15A
:100B0000012400E00024204638BD01460020A14A0F
:100B1000106820F0F80040EAC10010607047A0495A
:100B200008607047024600209A4B586820F47C10F9
:100B300042EA01031843974B58607047984908668A
:100B4000704701460020934A506820F00300084394
:100B5000506070478F48406800F00C0070470146B5
:100B600000208C4A506820F0F00008435060704725
:100B700001460020874A506820F4E0600843506036
:100B8000704701460020834A506820F4605040EAD4
:100B9000C1005060704729B17E4A527A02437D4BB2
:100BA0005A7204E07B4A527A82437A4B5A727047F7
:100BB0007B49D8310860704701460020754A50686B
:100BC00020F440400843506070470021714A2032B1
:100BD0001170704A82F82010012802D004280AD12E
:100BE00004E001216B4A2032117005E00521694AB9
:100BF0002032117000E000BF00BF704769490860F3
:100C000070476449096A0143624A11627047654945
:100C100044390860704730B50021002200240023C9
:100C20005C4D6D6805F00C0121B1042905D008293F
:100C300023D105E05C4D056022E05C4D05601FE0BE
:100C4000544D6D6805F47012524D6D6805F4803492
:100C5000022505EB92421CB9554D554305600BE04A
:100C60004C4D6D6805F400351DB1524D554305607E
:100C700002E04E4D5543056002E04B4D056000BF5C
:100C800000BF444D6D6805F0F00109094A4D6B5CE9
:100C90000568DD4045603F4D6D6805F4E061090A77
:100CA000454D6B5C4568DD4085603A4D6D6805F4E7
:100CB0006051C90A404D6B5C4568DD40C560354DEB
:100CC0006D6805F44041890B3C4D6B5CC568B5FB14
:100CD000F3F5056130BD29B12E4A526902432D4B0F
:100CE0005A6104E02B4A526982432A4B5A61704789
:100CF00029B1284A92690243264B9A6104E0254AA9
:100D000092698243234B9A61704729B1214AD26983
:100D10000243204BDA6104E01E4AD26982431D4B34
:100D2000DA61704729B11B4AD2680243194BDA6075
:100D300004E0184AD2688243164BDA60704729B142
:100D4000144A12690243134B1A6104E0114A1269F2
:100D50008243104B1A61704712494039086070474E
:100D60000F49C86470470B49C87170470948406A09
:100D700040F0807007494862704701460020054AEC
:100D800092680A400AB1012000E000207047014942
:100D900088727047001002400000FFF8FFFFF6FE67
:100DA000000042428004424200127A00001BB70059
:100DB00000093D00808D5B0014000020240000200D
:100DC00010B50446FB48844209D101218803FFF78E
:100DD000A9FF00214FF48040FFF7A4FF32E0F6485E
:100DE000844209D101214804FFF7A9FF00214FF4F3
:100DF0000030FFF7A4FF25E0F048844209D101212B
:100E00008804FFF79CFF00214FF48020FFF797FF35
:100E100018E0EB48844209D10121C804FFF78FFF95
:100E200000214FF40020FFF78AFF0BE0E5488442E1
:100E300008D101210805FFF782FF00214FF480103F
:100E4000FFF77DFF10BD2DE9F04786B005460E4641
:100E50000024A24600BFA1460027B08900B100BF10
:100E60002F462C8A4CF6FF700440F08804432C82F5
:100E7000AC894EF6F3100440B0883189084371897B
:100E800008430443AC81AC8A4FF6FF400440B0896C
:100E90000443AC8201A8FFF7BEFEC648874202D1D8
:100EA000DDF810A001E0DDF80CA0A88900F40040F6
:100EB00040B10AEBCA0000EB0A1031684900B0FBF0
:100EC000F1F807E00AEBCA0000EB0A10316889006C
:100ED000B0FBF1F86420B8FBF0F0040120096421B4
:100EE00001FB1089A88900F4004040B1322000EBDA
:100EF000C900B0FBF1F000F00700044308E0322025
:100F000000EB09106421B0FBF1F000F00F00044386
:100F10002C8106B0BDE8F0874FF416510160002126
:100F20008180C18001810C21418100218181704734
:100F300010B502460020108A4FF2FF0318400B88BC
:100F40004C8823438C882343CC8823431843108246
:100F500010BD0021018041808180C180704721B196
:100F6000828942F40052828104E082894DF6FF7347
:100F70001A4082817047F0B5034600240026002500
:100F8000002040F66A17B94200D100BF1846C1F3ED
:100F9000421401F01F06012707FA06F5012C01D1C2
:100FA0000C3004E0022C01D1103000E014301AB1F2
:100FB00007682F43076002E00768AF430760F0BD92
:100FC0001AB1838A0B43838202E0838A8B43838234
:100FD0007047028A4FF6F0731A400282028A0A436F
:100FE0000282704782894FF2FF731A4082818289A0
:100FF0000A438281704721B1828942F002028281D4
:1010000004E082894FF6FD731A4082817047028A9C
:101010004FF6DF731A400282028A0A430282704747
:1010200021B1028A42F48042028204E0028A4BF635
:10103000FF731A4002827047C1F308028280704732
:1010400001468888C0F308007047818941F001019A
:1010500081817047028BD2B20283028B42EA012265
:1010600002837047028B02F47F420283028B0A43A1
:101070000283704721B1828A42F02002828204E01A
:10108000828A4FF6DF731A408282704721B1828ACA
:1010900042F01002828204E0828A4FF6EF731A4017
:1010A0008282704721B1828A42F00802828204E083
:1010B000828A4FF6F7731A408282704721B1828983
:1010C00042F40042828103E08289C2F30E028281EF
:1010D000704721B1828A42F40062828204E0828AEF
:1010E0004FF2FF731A4082827047828A4FF6FB7379
:1010F0001A408282828A0A438282704721B1828AA0
:1011000042F00202828204E0828A4FF6FD731A40A6
:101110008282704702460020B1F5007F00D100BFF7
:1011200013880B400BB1012000E00020704701F450
:101130000072B2F5007F00D100BFCA430280704741
:1011400070B50246002400230025002040F66A16F0
:10115000B14200D100BFC1F3421501F01F030126C7
:1011600006FA03F3012D02D19689334006E0022DE1
:1011700002D1168A334001E0968A33400C120126D0
:1011800006FA04F41688344013B10CB1012000E0D3
:10119000002070BD10B50022002340F66A14A14261
:1011A00000D100BF0A1201249440A3B2DC430480A2
:1011B00010BD0000003801400044004000480040DD
:1011C000004C00400050004010B504462246082163
:1011D0001148FFF782FB1148047010BD08B50121CA
:1011E0000820FFF785FD01210846FFF781FD012159
:1011F0000B48FFF792FB10208DF803000820ADF894
:10120000000003208DF8020069460348FFF7B4FA96
:101210000020FFF7D9FF08BD000C01402800002086
:10122000000230004FF0E020006920F004004FF091
:10123000E02108610920364908700846007800EB73
:101240004001C1EBC0104FF6FF7101EAC000314907
:1012500008807047002120F07F402D4A12784243D9
:101260004FF0E0235A6100229A6101221A6100BF07
:101270004FF0E022116901F001021AB101F480324D
:10128000002AF5D000224FF0E0231A619A617047DE
:10129000002100B9704720F07F401E4A1288424367
:1012A0004FF0E0235A6100229A6101221A6100BFC7
:1012B0004FF0E022116901F001021AB101F480320D
:1012C000002AF5D000224FF0E0231A619A6100BF96
:1012D000E0E770B50446002600254FF4FA7094FB51
:1012E000F0F0C6B24FF4FA7094FBF0F100FB11403D
:1012F00085B205E04FF4FA70FFF7CAFF701EC6B260
:10130000002EF7D115B12846FFF7C2FF70BD0000CF
:101310002A0000202C00002010B586B004460121D0
:101320000420FFF7E5FC01218803FFF7E1FC18200A
:101330008DF817004FF40070ADF8140003208DF8FD
:10134000160005A96B48FFF717FA04208DF817005F
:101350000002ADF8140003208DF8160005A96548B9
:10136000FFF70AFA01940020ADF810000C20ADF848
:101370000E000020ADF80C00ADF80A00ADF8080032
:1013800001A95D48FFF75FFD01215B48FFF7E7FD1D
:10139000012240F225515848FFF7EDFD25208DF838
:1013A000000001208DF8030000208DF801000220CC
:1013B0008DF802006846FFF716F906B010BD10B5AB
:1013C00086B0044601210420FFF792FC0121480465
:1013D000FFF79BFC18208DF817000420ADF81400CF
:1013E00003208DF8160005A94248FFF7C5F904202F
:1013F0008DF817000820ADF8140003208DF81600B2
:1014000005A93C48FFF7B8F901940020ADF8100099
:101410000C20ADF80E000020ADF80C00ADF80A006D
:10142000ADF8080001A93548FFF70DFD012133484B
:10143000FFF795FD012240F225513048FFF79BFD53
:1014400026208DF8000001208DF8030000208DF883
:1014500001008DF802006846FFF7C5F806B010BD20
:101460002DE9F04107460C46154600260DE014F81C
:10147000011B3846FFF7E0FD00BF40213846FFF76B
:1014800049FE0028F9D0701C86B2AE42EFDBBDE801
:10149000F0810FB430B5CBB0054601AC50A8009038
:1014A0004FF4947101A8009B4F9A01F025FD002094
:1014B00000900BE014F8011B2846FFF7BDFD00BFAC
:1014C00040212846FFF726FE0028F9D02078002882
:1014D000F0D14BB030BC5DF814FB10B540F2255193
:1014E0000548FFF72DFE18B120210348FFF71FFE26
:1014F00010BD0000000801400038014000440040D9
:1015000010B54FF4A060FFF769F8FFF78BFE4FF4BA
:10151000E130FFF701FF4FF4E130FFF750FFFFF735
:101520005DFE21A12548FFF7B4FF10BD08B5244892
:101530000068009000250024FFF7E2FF01F061FB46
:1015400003E04FF4FA70FFF7A3FE00F053F8002811
:10155000F7D10120FFF738FEFA20FFF799FE0020AF
:10156000FFF732FE0121684600F0AEF81BE0681C70
:1015700080B20546B0F5FA7F0ADB12A10F48FFF7EB
:1015800088FF15A119A000F0C7F8002501F0BCFAEA
:10159000002001F014FB044614B1204600F0E8F8E6
:1015A0000A20FFF775FEE2E72048617264776172F6
:1015B0006520696E6974204F4B0D0A0000380140A8
:1015C000404A00084F6E654E65745F5075626C69E5
:1015D00073680D0A000000004D515454205075628C
:1015E0006C69736820546573740000007063546FF5
:1015F0007069630030B58BB00020079008900990A7
:101600000A900125DBA0DDA3DEA2E0A10090EB485B
:10161000FFF73FFF07A8002102910391CDE90410D5
:1016200000912B02D3A20191D4A1D6A000F017FC07
:10163000002842D1089A91B2079801F0A9FAFA203D
:1016400001F0BDFA0446002C33D0204600F0D2FB56
:1016500002282ED1204600F067FD062823D2DFE8BD
:1016600000F003090E13181DD5A1D448FFF711FF90
:1016700000251DE0D7A1D148FFF70BFF18E0DCA142
:10168000CE48FFF706FF13E0E2A1CC48FFF701FFC9
:101690000EE0E8A1C948FFF7FCFE09E0EEA1C7484B
:1016A000FFF7F7FE04E0F7A1C448FFF7F2FE00BF22
:1016B00000BF07A800F056FB03E0F9A1BF48FFF701
:1016C000E8FE28460BB030BD70B586B004460D4626
:1016D00000260020029003900490059007E054F843
:1016E0002620F8A1B548FFF7D4FE701CC6B2AE4262
:1016F000F5DB02A82B46224602210090142000F0C0
:1017000018FF38B9039A91B2029801F041FA02A881
:1017100000F028FB06B070BD70B588B005460C46D9
:101720000020049005900690079023462A46EBA1DE
:10173000A248FFF7AEFE204601F073FD064604A85E
:10174000012100220223CDE90032CDE90210334607
:10175000224629460A2000F0F6FC38B9059A91B2D3
:10176000049801F015FA04A800F0FCFA08B070BD66
:101770002DE9F04190B0074600200C900D900E909E
:101780000F900B900A900990089000260790002572
:1017900000248046384600F02DFB0646F01E0D283A
:1017A00074D2DFE800F02B77809AB6DBBFDBCDDBAD
:1017B000DBDB070008AB0BAA0AA9384600F031FEB4
:1017C0000546D5B9BDF820000090CCA17B48DDE9E5
:1017D0000A23FFF75EFE0CAADDE90A0100F067FEAE
:1017E00058B9CFA17548FFF754FE0D9A91B20C98E5
:1017F00001F0CEF90CA800F0B5FAB2E0CE4807A986
:1018000008AA0BABCDE90021029009AA0AA9384623
:1018100000F0B7FF0546002D3BD1BDF820000B9925
:10182000CDE90010BDF82430C4A164480A9AFFF73E
:1018300030FE9DF81C00012802D0022827D112E0BA
:101840000CA9BD48008801F078F858B9CAA15B48D6
:10185000FFF71FFE0D9A91B20C9801F099F90CA8B0
:1018600000F080FA14E00CA9B348008801F098F861
:1018700058B9C7A15148FFF70CFE0D9A91B20C98C8
:1018800001F086F90CA800F06DFA01E066E000BFF7
:1018900000BF66E0384601F074F818B9C2A14748A5
:1018A000FFF7F7FD5DE0384601F09EF8A0B9C6A14C
:1018B0004248FFF7EEFD0CA90A2001F0A4F858B940
:1018C000C7A13E48FFF7E5FD0D9A91B20C9801F0D3
:1018D0005FF90CA800F046FA43E0974801883846C3
:1018E00001F0B5F8A0B9C4A13448FFF7D2FD0CA9A6
:1018F0000A2001F0BEF858B9C5A13048FFF7C9FD6C
:101900000D9A91B20C9801F043F90CA800F02AFA54
:1019100027E0384601F0D1F818B9C4A12748FFF7ED
:10192000B8FD1EE0384600F083FE20B9C5A123486B
:10193000FFF7AFFD03E0CAA12048FFF7AAFD10E0C2
:10194000384600F015FF20B9CCA11C48FFF7A1FDD7
:1019500003E0D1A11948FFF79CFD02E04FF0FF35ED
:1019600000BF00BF01F0D0F8681C10B910B0BDE88E
:10197000F081A1E13536313638333900746573743E
:101980000000000037373234370000004F6E654EDC
:1019900065745F4465764C696E6B0D0A50524F4911
:1019A000443A2025732C09415549463A2025732C89
:1019B0000944455649443A25730D0A000038014050
:1019C000546970733A09C1ACBDD3B3C9B9A60D0A45
:1019D000000000005741524E3A09C1ACBDD3CAA71E
:1019E000B0DCA3BAD0ADD2E9B4EDCEF30D0A00005D
:1019F0005741524E3A09C1ACBDD3CAA7B0DCA3BA15
:101A0000B7C7B7A8B5C4636C69656E7469640D0A1D
:101A1000000000005741524E3A09C1ACBDD3CAA7DD
:101A2000B0DCA3BAB7FECEF1C6F7CAA7B0DC0D0A88
:101A3000000000005741524E3A09C1ACBDD3CAA7BD
:101A4000B0DCA3BAD3C3BBA7C3FBBBF2C3DCC2EBFE
:101A5000B4EDCEF30D0A00005741524E3A09C1AC25
:101A6000BDD3CAA7B0DCA3BAB7C7B7A8C1B4BDD3AA
:101A700028B1C8C8E7746F6B656EB7C7B7A8290DE2
:101A80000A0000004552523A09C1ACBDD3CAA7B002
:101A9000DCA3BACEB4D6AAB4EDCEF30D0A00000092
:101AA0005741524E3A094D5154545F5061636B6532
:101AB00074436F6E6E656374204661696C65640D76
:101AC0000A00000053756273637269626520546F87
:101AD0007069633A2025730D0A0000005075626C2E
:101AE00069736820546F7069633A2025732C204D08
:101AF00073673A2025730D0A00000000636D646966
:101B0000643A2025732C207265713A2025732C20AD
:101B10007265715F6C656E3A2025640D0A000000E5
:101B2000546970733A0953656E6420436D6452655D
:101B300073700D0A000000002E000020746F7069A1
:101B4000633A2025732C20746F7069635F6C656E37
:101B50003A2025642C207061796C6F61643A2025ED
:101B6000732C207061796C6F61645F6C656E3A20D4
:101B700025640D0A00000000546970733A0953652A
:101B80006E64205075626C69736841636B0D0A0066
:101B9000546970733A0953656E64205075626C69BC
:101BA00073685265630D0A00546970733A094D51A8
:101BB0005454205075626C6973682053656E6420BC
:101BC0004F4B0D0A00000000546970733A095265CA
:101BD00076205075626C6973685265630D0A000067
:101BE000546970733A0953656E64205075626C696C
:101BF000736852656C0D0A00546970733A09526536
:101C000076205075626C69736852656C0D0A00002D
:101C1000546970733A0953656E64205075626C693B
:101C20007368436F6D700D0A000000005469707393
:101C30003A09526576205075626C697368436F6D1E
:101C4000700D0A00546970733A094D515454205371
:101C50007562736372696265204F4B0D0A00000064
:101C6000546970733A094D5154542053756273632B
:101C700072696265204572720D0A000054697073C2
:101C80003A094D51545420556E537562736372690D
:101C90006265204F4B0D0A00546970733A094D512B
:101CA000545420556E5375627363726962652045A2
:101CB00072720D0A000000007D210B9801F083FA7A
:101CC0000446A4B1681C90B1641C06E014F8012B12
:101CD000404608F1010804A90A542078302802DBA4
:101CE00020783928F2DD04A801F060FA80460F2E32
:101CF00001D0032E05D10A9801F0D7F80B9801F016
:101D0000D4F800BF10B0BDE8F081000070B5044603
:101D10000E460025206898B901202073304601F056
:101D200095F820602068E0B100206060A66003E0C4
:101D30000020216848556D1CA068A842F8D810E022
:101D40000220207303E00020216848556D1CA06824
:101D5000A842F8D800206060A068B04201D20020FC
:101D6000206070BD10B50446207B012802D1206898
:101D700001F09BF8002020606060A060207310BD1F
:101D80000246002301230DE002F07F000870D20913
:101D90002AB1087840F080000870491C01E018461C
:101DA00070475B1C042BEFDD4FF0FF30F8E7F0B518
:101DB00004460D462646012300201060002114E051
:101DC000775C07F07F07106807FB03001060705C0A
:101DD00000F0800008B9481CF0BDDB01B3F5001F1E
:101DE00002D36FF00100F7E7491CA942E8DB4FF08E
:101DF000FF30F1E7F8B50446FF2720780511012DE3
:101E000001DB0E2D01DD3846F8BD032D24D1002065
:101E100000906A460421601CFFF7C9FF2044461C5D
:101E20000098022803D3207800F0010008B1FF20B9
:101E3000EAE77078317840EA0120801C00998842F6
:101E400001D9FF20E0E7F8A1B01C01F0D8F908B1F2
:101E50000F2700E0032700E02F463846D4E72DE99E
:101E6000FF4F83B082468B469146159C002500208B
:101E700002900F270190484601F0D3F90FFA80F83D
:101E8000B9F1000F03D1012007B0BDE8F08F08F1D0
:101E90000200384487B2109808B145F00205129844
:101EA00078B145F00405129801F0BBF9C0B2029078
:101EB000139801F0B6F901460298001D0844384411
:101EC00087B2119820B1012804D0022808D104E07B
:101ED00000BF07E045F00C0504E045F0140501E003
:101EE0000220D1E700BF149808B145F02405BAF1EB
:101EF000000F02D0BBF1000F01D10320C4E745F071
:101F0000C005504601F08DF90646584601F089F9A2
:101F10003044001D384487B239462046FFF7F6FEAC
:101F2000206808B90420AFE73946206801F0DDF9E0
:101F300010216268501C606020688154D4E900233D
:101F4000D118781FFFF71CFF00B2019001980028FC
:101F500004DA2046FFF706FF052095E7616801983F
:101F60000844606000216268501C606020688154F1
:101F700004216268501C6060206881544D216268B1
:101F8000501C60602068815451216268501C606060
:101F90002068815454216268501C6060206881541C
:101FA0006268501C60602068815404216268501C83
:101FB0006060206881546168481C606020684554F6
:101FC0000698010A6268501C606020688154069877
:101FD000C1B26268501C606020688154C8F3072158
:101FE0006268501C6060206881546268501C6060A8
:101FF000206800F80280D4E9001288184246494659
:1020000001F0EBF860684044606005F00400B8B38C
:102010000026139808B986A01390129801F001F9D0
:1020200086B2310A6268501C606020688154626820
:10203000501C606020688654D4E90012881832462B
:10204000129901F0CAF8606830446060139801F09A
:10205000E8F886B2310A6268501C606020688154DA
:102060006268501C606020688654D4E900128818A9
:102070003246139901F0B1F860683044606000BFE7
:1020800005F08000C8B1504601F0CBF886B2310AA5
:102090006268501C6060206881546268501C6060F7
:1020A00020688654D4E9001288183246514601F05F
:1020B00094F860683044606000BF05F04000C8B12B
:1020C000584601F0AEF886B2310A6268501C606072
:1020D000206881546268501C606020688654D4E98E
:1020E000001288183246594601F077F8606830448B
:1020F000606000BF0020C7E610B5044602212046FC
:10210000FFF704FE206808B9012010BDE0216268D5
:10211000501C60602068815400216268501C60601F
:10212000206881540020F0E701464878022801D059
:1021300001207047887810B18878012801D1C878CB
:10214000F7E7FF20F5E72DE9FF4F83B083461746F9
:102150009946139C0025002600200290019080469D
:10216000BBF1000F03D1012007B0BDE8F08F0026BE
:102170000AE00498805D232803D00498805D2B2812
:1021800001D10220F0E7761C0498805D0028F0D190
:1021900048F03008119808B148F0010806EB090032
:1021A000851C109820B1012804D002280AD105E02E
:1021B00000BF09E048F00208AD1C05E048F0040843
:1021C000AD1C01E00320CFE700BF67B338780228D9
:1021D00021D14FF0000A00BF50460AF1010A385CD5
:1021E0007D28F9D1AAF1030A0AF1070002900298AA
:1021F000A9EB000AE81CA0EB0A012046FFF786FDC8
:10220000206808B90420AFE7EA1CA2EB0A012068A5
:1022100001F06BF81FE0691D2046FFF777FD20688D
:1022200040B90420A0E70AE0246372657100000051
:1022300000000000691D206801F057F80BE0691DDF
:102240002046FFF763FD206808B904208CE7691D6C
:10225000206801F04AF86168481C6060206800F856
:102260000180D4E9000281182846FFF789FD01901A
:102270000198002804DA2046FFF774FD052073E773
:102280006168019808446060C6F307216268501CC9
:102290006060206881546268501C606020688654C9
:1022A000D4E9001288183246049900F096FF60685D
:1022B00030446060109860B14FEA1B216268501C86
:1022C0006060206881546268501C6060206800F87B
:1022D00002B0C7B1387802280BD1D4E900128818AF
:1022E0003946029A00F0BCFF6168029808446060B9
:1022F00009E0D4E9001288184A46394600F0B0FFD8
:1023000060684844606000202EE72DE9FF410746E1
:102310000D4690461E460A9C01200021CDE9000191
:10232000EB1C0A46FAA1CDE902040A20FFF70BFFD5
:1023300088B96168481C606020684654C5F307216D
:102340006268501C6060206881546268501C606044
:102350002068855403E0012004B0BDE8F08100202E
:10236000FAE72DE9F04F85B080460D4691460120F1
:1023700004900027002600244FF0000A404600F099
:1023800050FF00F10D0B584600F060FD07461FB9E5
:10239000049805B0BDE8F08F4246DEA1384600F053
:1023A000C5FD384600F03DFFC6B2F01D00EB050A42
:1023B000AAEB050000F04AFD044624B9384600F0B7
:1023C00074FD0498E5E70220207000206070A6707C
:1023D00032463946E01C00F043FF290EF01C215420
:1023E000C5F30741301D2154C5F30721701D215449
:1023F000B01D255401200021CDE90001534622469D
:10240000C3A1CDE902090A20FFF79DFE08B900200B
:102410000490384600F049FD204600F046FD04983F
:10242000B7E72DE9F84380460C4615461E462F2196
:1024300008F1060000F0C7FE07460020009017B91B
:102440000120BDE8F8837F1C6A46042108F10100E1
:10245000FFF7ADFC252000F0F9FC2060206808B9EA
:102460000220EEE72521206800F03FFF24223946B4
:10247000206800F0F5FE243700982C383080318831
:10248000481C00F0E3FC2860286820B9206800F0B0
:102490000CFD0320D5E73288511C286800F025FF89
:1024A00032883946286800F0DBFE0020C9E72DE9B4
:1024B000FF5F07460D469046384600F0B2FE86B2F2
:1024C000284600F0AEFE1FFA80FA4FF00009F01D1A
:1024D00000F0BCFC04461CB9012004B0BDE8F09F2C
:1024E000F11D204600F001FF8EA001682160808868
:1024F000A08032463946204600F06FFE284600F0A4
:1025000090FE83460120002100915B462A46CDE9DA
:102510000208019121460A20FFF715FE10B94FF07D
:10252000000901E04FF00109204600F0BEFC4846DA
:10253000D3E72DE9FF5F8046174699460E9C00269B
:10254000B246B3460025B8F1000F03D1012004B014
:10255000BDE8F09F0BE057F8250008B90220F6E728
:1025600057F8250000F05DFE0644681CC5B24D45D5
:10257000F1DB09EB4900801C00EB060A0AF10501BA
:102580002046FFF7C3FB206808B90320DFE782215C
:102590006268501C606020688154D4E90002811890
:1025A0005046FFF7EDFB0FFA80FBBBF1000F04DA9A
:1025B0002046FFF7D7FB0420C9E7606858446060F5
:1025C0004FEA18216268501C60602068815462687C
:1025D000501C6060206800F80280002524E057F855
:1025E000250000F01EFE0646C6F307216268501C57
:1025F0006060206881546268501C60602068865466
:10260000D4E90023D01857F82510324600F0E5FD34
:102610006068304460600198C1B26268501C6060BC
:1026200020688154681CC5B24D45D8DB00208EE778
:102630000146FF208A78A2B9CA78142A11D10A79F2
:1026400032B1012A05D0022A04D0802A06D103E043
:1026500000BF00BF002003E0012001E0022000BF16
:1026600000BF70472DE9F05F80460F4691461C463B
:102670000026B246B3460025B8F1000F02D1012072
:10268000BDE8F09F0BE057F8250008B90220F7E7F6
:1026900057F8250000F0C5FD0644681CC5B24D453D
:1026A000F1DB022000EB490000EB060A0AF105010C
:1026B0002046FFF72BFB206808B90320E0E7A221A2
:1026C0006268501C606020688154D4E9000281185F
:1026D0005046FFF755FB0FFA80FBBBF1000F04DA01
:1026E0002046FFF73FFB0420CAE76068584460605B
:1026F0004FEA18216268501C60602068815462684B
:10270000501C6060206800F8028000252CE000006A
:10271000246470007B2264735F6964223A2225730B
:10272000227D000024637273702F000057F825008B
:1027300000F077FD0646C6F307216268501C606012
:10274000206881546268501C606020688654D4E917
:102750000023D01857F82510324600F03EFD60687F
:1027600030446060681CC5B24D45DFDB002087E760
:10277000014601208A781AB9CA781E2A00D10020A1
:1027800070472DE9FC5F81460D4614461E46DDE983
:102790000C8B99F8000000F00F0A002001900AF05D
:1027A00008000090CAF341008BF8000001AA042140
:1027B00009F10100FFF7FBFA4844471C0198022881
:1027C00002D30AF0010010B1FF20BDE8FC9F787829
:1027D000397840EA012020802088801C01998842B5
:1027E00001D9FF20F1E7AFF2C051B81C00F007FD9E
:1027F00008B10F20E9E79BF8000020B101283DD087
:10280000022877D13BE0009808B1FF20DDE721885E
:10281000481C00F01BFB2860286808B9FF20D4E79B
:102820002288511C286800F060FD2288B91C2868A5
:1028300000F016FD0198801E2188401AA8F80000BB
:10284000B8F80010481C00F001FB3060306820B977
:10285000286800F02AFBFF20B7E7B8F80020511CD9
:10286000306800F042FDB8F80020B4F800C0BB1C8E
:102870000CEB0301306800F0F3FC4FE000BF208850
:10288000801C0199884201D9FF209EE72088C01C46
:10289000395C2088801C385C41EA00210E98018058
:1028A0000E9808B9FF2090E72188481C00F0CEFA66
:1028B0002860286808B9FF2087E72288511C28680B
:1028C00000F013FD2288B91C286800F0C9FC0198AB
:1028D000001F2188401AA8F80000B8F80010481C12
:1028E00000F0B4FA3060306828B9286800F0DDFAEA
:1028F000FF206AE710E0B8F80020511C306800F0B3
:10290000F4FCB8F80020B4F800C03B1D0CEB030148
:10291000306800F0A5FC01E0FF2056E700BF2B2146
:10292000284600F050FC20B92321284600F04BFC3B
:1029300008B1FF2049E7002047E770B505460C467F
:1029400004212046FFF7E2F9206808B9012070BD94
:1029500040216268501C60602068815402216268D6
:10296000501C60602068815429126268501C6060AD
:10297000206881546268501C606020688554002083
:10298000E5E701464878022801D0012070478878A1
:1029900020B9C8780A2801D10020F7E70120F5E71F
:1029A00070B505460C4604212046FFF7AFF92068B4
:1029B00008B9012070BD50216268501C6060206819
:1029C000815402216268501C606020688154291281
:1029D0006268501C6060206881546268501C6060AE
:1029E000206885540020E5E701464878022801D098
:1029F00001207047887820B9C8780A2801D10020C2
:102A0000F7E70120F5E770B505460C46042120469E
:102A1000FFF77CF9206808B9012070BD6221626867
:102A2000501C60602068815402216268501C606004
:102A30002068815429126268501C606020688154AB
:102A40006268501C6060206885540020E5E70246FB
:102A50005078022801D0012070479078B0EB112FF8
:102A600005D1D078CBB2984201D10020F4E7012003
:102A7000F2E770B505460C4604212046FFF746F9FB
:102A8000206808B9012070BD70216268501C606028
:102A90002068815402216268501C60602068815463
:102AA00029126268501C6060206881546268501C62
:102AB0006060206885540020E5E7014648780228D8
:102AC00001D001207047887820B9C8780A2801D140
:102AD0000020F7E70120F5E710B504460221204663
:102AE000FFF714F9206808B9012010BDC021626801
:102AF000501C60602068815400216268501C606036
:102B0000206881540020F0E710B58021874800F04C
:102B1000ECFB00208649088010BD8548008808B974
:102B2000012070478248008882490988884203D181
:102B300000207F490880F4E77D4800887D490880AF
:102B40000120EEE72DE9F04104460D46C826204657
:102B500000F067FB87B23A4621467748FEF780FCD3
:102B60000FE0FFF7DAFF48B92946704800F047FB4D
:102B700020B1FFF7C9FF0020BDE8F0810A20FEF771
:102B800087FB301EA6F10101CEB2EAD10120F3E7A6
:102B900030B589B004460D46FFF7B6FF2A4667A157
:102BA00001A800F0C3F969A101A8FFF7CBFF20B984
:102BB0002A4621466048FEF753FC09B030BD70B587
:102BC0000546002400BFFFF7A8FF80B960A1574861
:102BD00000F015FB044654B13A21204600F0F3FA08
:102BE000044614B1641C204670BD0020FCE705209B
:102BF000FEF74EFB281EA5F101018DB2E3D100BF07
:102C0000F2E708B501210420FEF772F810208DF8D4
:102C100003008002ADF8000003208DF80200694631
:102C20004D48FDF7A9FD00224FF480414A48FDF7C9
:102C300054FEFA20FEF72CFB012291034648FDF7D3
:102C40004CFE4FF4FA70FEF723FBFFF75DFF43A144
:102C50004448FEF71EFC03E04FF4FA70FEF718FB41
:102C600041A142A0FFF76EFF0028F5D141A13D48E8
:102C7000FEF70FFC03E04FF4FA70FEF709FB3AA1F0
:102C80003FA0FFF75FFF0028F5D141A13548FEF7CF
:102C900000FC03E04FF4FA70FEF7FAFA32A140A00C
:102CA000FFF750FF0028F5D141A12E48FEF7F1FBB8
:102CB00003E04FF4FA70FEF7EBFA40A141A0FFF7F2
:102CC00041FF0028F5D14AA12648FEF7E2FB03E0C8
:102CD0004FF4FA70FEF7DCFA49A14BA0FFF732FF80
:102CE0000028F5D153A11F48FEF7D3FB08BD10B54E
:102CF00040F225511048FEF723FAB0B10C48008885
:102D0000802802D300200A4908800B48001D008853
:102D1000C1B2074802880088401C054B1880034850
:102D2000815420210448FEF702FA10BD340000202F
:102D300030000020320000200044004041542B436A
:102D4000495053454E443D25640D0A003E000000A5
:102D50004950442C0000000000100140312E204159
:102D6000540D0A00003801404F4B000041540D0A39
:102D700000000000322E2043574D4F44450D0A00FD
:102D800041542B43574D4F44453D310D0A0000003F
:102D9000332E2041542B4357444843500D0A000022
:102DA00041542B4357444843503D312C310D0A00C8
:102DB000342E2043574A41500D0A0000474F5420FB
:102DC0004950000041542B43574A41503D224F4E39
:102DD000454E4554222C22494F54404368696E6148
:102DE0006D6F62696C65313233220D0A000000009C
:102DF000352E2043495053544152540D0A000000CF
:102E0000434F4E4E4543540041542B434950535475
:102E10004152543D22544350222C223138332E3219
:102E200033302E34302E3339222C363030320D0AE6
:102E300000000000362E20455350383236362049E7
:102E40006E6974204F4B0D0A0000000070B50646F5
:102E500000F070FA056806F10B0020F00704B44298
:102E60009CBF002070BD2B466A68BAB11068A042B2
:102E700010D304F1080188423CBF5068586007D362
:102E80005168101941601168091B01605860146095
:102E9000101D70BD13465268002AE7D1214628460E
:102EA00000F054FA0028DED170BD70B50446051F4D
:102EB00000F040FA0068002C14BF446870BD002C7C
:102EC00018BFAC423CBF20466468F8D301680A18BA
:102ED000AA4218BF456003D12A6805461144016023
:102EE00028684119A1421CBF6C6070BD61686960AF
:102EF00021680844286070BD7CB51D4616460C004C
:102F0000009001D02044401E074B7B442A4669466E
:102F10000190304600F00FFB05461CB100206946C9
:102F200000F01CFB28467CBD590600000FB41CB500
:102F3000084B06AA7B4469460090059800F0FBFA0E
:102F400004460020694600F009FB20461CBC5DF8E1
:102F500014FB00002506000070B50C460546012A4A
:102F600005D02878800600D5EA69002302E0012315
:102F700005E05B1C934202D2E05C0028F9D1A8690D
:102F8000E618C01AA861286A18442862284600F08A
:102F900027FA04E0D5E9012114F8010B9047B44267
:102FA000F8D3284600F032FA70BD00002DE9F04158
:102FB0000646002410687529314616A510D000F089
:102FC00036FA002802DA404213A507E031688A0782
:102FD00001D512A502E0490704D511A5012401E09D
:102FE00000F02EFA00210A2206F1240709E0B0FBC6
:102FF000F2FCB0FBF2F302FB1C00303078541846B0
:10300000491C0028F3D123462A463046BDE8F0414A
:1030100000F01FBA000000002D0000002B0000008F
:10302000200000002DE9F05F894604464FF0000AB9
:10303000DFF874B1FB44C0F820A02046E16888475F
:10304000002874D0252806D0D4E901219047206AB1
:10305000401C2062F1E700265F462046E168884771
:103060002028054607DB312D05D2781910F8200CF1
:1030700008B10643F1E7B00701D526F00406C4F80D
:103080001CA00027C4F818A02A2D09D0284601F05A
:10309000A2FC38B304EB8708303DC8F8185019E09B
:1030A00059F8041B204604EB87029161E1688847C8
:1030B000012F054618D1E069002820DA26F0200605
:1030C0001DE0D8F8180000EB800005EB4000303818
:1030D000C8F818002046E1688847054601F07BFCE7
:1030E0000028EED1012F0AD02E2D08D12046E1680C
:1030F00088477F1C0546022F46F02006C4DBA069E6
:10310000002803DA404246F00106A061F00701D032
:1031100026F010066C2D0BD0682D09D04C2D39D01F
:103120006A2D35D0742D35D07A2D33D016E038E0A5
:10313000E1682F4620468847B842054609D16C2FE2
:1031400026D04FF48060E168064320468847054654
:1031500004E06C2F1AD04FF4807006430DB3A5F134
:103160004100192802D8203546F400664A4629460F
:10317000204626604E46FDF715F880B101280BD099
:10318000F61D26F0070000F1080956E74020E4E7A5
:103190008020D8E70020D6E706F104094DE728464D
:1031A00052E7206ABDE8F09F0C1A000070B5064691
:1031B00000F0C4F80468054630460A22002100F0F9
:1031C0000FFB2C6070BD401ECAB210F8011F8A426E
:1031D00002D00029F9D10020704710B5431E13F822
:1031E000014F002CFBD105E011F8014B002C03F836
:1031F000014B03D0521EF7D20021197010BD30B51B
:1032000005460B462A4613F8014B12F8010B08B18C
:10321000A042F8D01CB1002802D06D1CF1E728466E
:1032200030BD10B5431C02E010F8011B71B18107DD
:10323000FAD14FF0013202C88C1A8C4314EAC21141
:10324000F9D0C01A0A0603D0C01E10BDC01A10BDA6
:103250000A0401D0801E10BD0902FCD0401E10BD22
:10326000032A40F2308010F0030C00F0158011F8B2
:10327000013BBCF1020F624498BF11F801CB00F88A
:10328000013B38BF11F8013BA2F1040298BF00F8DE
:1032900001CB38BF00F8013B11F0030300F0D882E6
:1032A000083AC0F0088051F8043B083A51F804CBC2
:1032B000A0E80810F5E7121D5CBF51F8043B40F888
:1032C000043BAFF30080D20724BF11F8013B11F893
:1032D00001CB48BF11F8012B24BF00F8013B00F8D7
:1032E00001CB48BF00F8012B70474FF000020429C2
:1032F000C0F0128010F0030C00F0DE82CCF1040C60
:10330000BCF1020F18BF00F8012BA8BF20F8022B58
:10331000A1EB0C0100F0D0BA5FEAC17C24BF00F839
:10332000012B00F8012B48BF00F8012B70477047B4
:103330007047704700487047BC0000200048704745
:10334000B4000020704770477047704738B5044696
:103350000A4600206946AFF30080002808BF38BD48
:1033600002460099204600F0D9FA012038BD01201C
:1033700000F0C7BDF8B5AFF30080054600200C464D
:10338000102000BF0646A819A0420DD93246694652
:103390000020AFF30080070008BF00F0B2FD0098E6
:1033A000A04218BF0546C419FFF7C4FF05600746D1
:1033B000F01D20F007004619284600F00AF8B44234
:1033C00008BFF8BDA21B31463868BDE8F84000F0E0
:1033D000A5BA00210160C0E90110704710207047B4
:1033E00070B5044685690068C10601D5302600E045
:1033F0002026C00707D070BDD4E901213046904790
:10340000206A401C20626D1EF6D570BD70B5044662
:1034100085690078C00707D170BDD4E9012120205B
:103420009047206A401C20626D1EF6D570BD096869
:103430004A0501D540B27047C905FCD500B27047B6
:1034400009684A0501D5C0B27047C905FCD580B2EC
:1034500070472DE9F0470D4699469246044600F123
:1034600024080168880604D5E06921F01001216074
:1034700000E00120A84201DD471B00E00027A16910
:103480007A1902EB0900081AA0612078C00602D45C
:103490002046FFF7A5FF002608E0D4E901211AF82D
:1034A00006009047206A401C761C20624E45F4DBE3
:1034B0002078C0060AD52046FFF792FF06E0D4E93F
:1034C000012130209047206A401C2062381EA7F15D
:1034D0000107F4DC07E0D4E9012118F80500904762
:1034E000206A401C2062281EA5F10105F3DC20465D
:1034F000FFF78CFF2078000602D50220BDE8F08798
:103500000120FBE711680268006A530501D50870C5
:103510000AE0D30501D5088006E0130603D5C217DB
:10352000C1E9000200E008600120704701694A1CFF
:1035300002610878704700B58FB0CDE901310021F4
:10354000059105497944CDE9031011466846FFF716
:1035500069FD0FB000BD0000E5FFFFFF0A6802F83B
:10356000010B0A607047D1E900239A4202D2531C32
:103570000B601070704710B5436913B1AFF3008052
:1035800001E0FFF7E9FC012010BD127800F12401F1
:103590000A7000224A700122EDE711684FF0FF32F5
:1035A000E9E700002DE9FF5F15468A460446DFF88B
:1035B000AC80F8440027D8E900103E46CDE9001061
:1035C00010E03AF816106A4602A800F07AFC411C96
:1035D00007D02178890603D5E269391891420DD8C0
:1035E0000744761C2078800602D5E069B84205DDE4
:1035F000AE42E6DB3AF816000028E2D1A069C01B13
:10360000A0612046FFF7ECFED8E90010CDE90010DC
:10361000002017E03AF818106A4602A800F051FCA2
:10362000B0F1FF3F81460BD000250DF1080B05E0FE
:10363000D4E901211BF8050090476D1C4D45F7D3D7
:1036400008F10100B0428046E4DB206A3844206281
:103650002046FFF7DBFEBDE8FF9F0000A21400003C
:103660002DE9F0418046D21D22F007020025D2E963
:103670000002F52915A614D0011E72F1000106DA28
:103680000023D0EB030063EB020211A608E0D8F898
:1036900000108B0701D50FA602E0490701D50EA641
:1036A00001251146002408F1240704E000F050F938
:1036B00030323A55641C50EA0102F7D12B463246AB
:1036C00021464046BDE8F041FFF7C3BE00000000C0
:1036D0002D0000002B0000002000000030B400216D
:1036E00000F1240408E002F00705D208303542EA70
:1036F0004372DB086554491C52EA0305F3D10468A0
:10370000002310A2250707D5A40600D421B1C4695F
:1037100001230DA2641EC46130BCFFF79ABE10B530
:10372000044621461068FFF78BFE02462046BDE89E
:1037300010400023D2E7D21D22F00701D1E9002377
:10374000CCE700000000000030000000F0B40D469F
:103750000188090502D5214C7C4402E01F4C7C44C1
:103760000E34002100F1240608E002F00F071209D0
:10377000E75D42EA03721B097754491C52EA0307CA
:10378000F3D102780023120704D5702D06D009B1B9
:10379000022311342246F0BCFFF75BBE0123103434
:1037A000F8E770B504460D4621461068FFF748FE5D
:1037B000024629462046BDE870400023C6E7D21DD8
:1037C00022F00703D3E90023C0E70368126843F03F
:1037D000200303600823C3610023B7E7041300003C
:1037E0002DE9F04791460F4680460446002614F81E
:1037F000015B2DB100F08AF80068405DC007F6D18A
:103800002B2D02D02D2D18D0641E4A463946204655
:1038100000F008FB27B13968A14201D1C7F8008048
:103820004FF0020471050BD54042002803DDFFF77D
:1038300085FD0460A007BDE8F08746F48066E4E7F4
:103840000028F8DAFFF77AFD04606FF00040F2E735
:1038500010B5203AC0F00B80B1E81850203AA0E82B
:103860001850B1E81850A0E81850BFF4F5AF5FEA5F
:10387000027C24BFB1E81850A0E8185044BF18C912
:1038800018C0BDE810405FEA827C24BF51F8043BB9
:1038900040F8043B08BF7047D20728BF31F8023B0D
:1038A00048BF11F8012B28BF20F8023B48BF00F8A1
:1038B000012B70474FF0000200B513469446964620
:1038C000203922BFA0E80C50A0E80C50B1F1200133
:1038D000BFF4F7AF090728BFA0E80C5048BF0CC0E1
:1038E0005DF804EB890028BF40F8042B08BF70473F
:1038F00048BF20F8022B11F0804F18BF00F8012BB1
:103900007047000000487047B400002010B500F078
:1039100025FB001D10BD00BFCD1000000346406810
:103920008C46002818BF88423CBF03464068F8D345
:1039300018681844884207D00CF1030020F00700F3
:10394000001D411A521A0146081D0A60FFF7ADBA60
:1039500030B5B0F10A024FEA900E71F100034EEA61
:10396000817EB0EB0E0061EB91014FEA101E4EEA32
:10397000017E10EB0E0041EB11114FEA102E4EEAC2
:10398000016E10EB0E0041EB11214FEA104E4EEA92
:10399000014E10EB0E0041EB1141401841F10001C6
:1039A0004FEAD00040EA41704FEAD10110EB8005A8
:1039B0004FEA810444EA907444EB01046D1944EB2E
:1039C0000404521BA3414FF0000348BF0A3200D544
:1039D00030BD401C41F1000130BD70472DE9FF4F63
:1039E0000C461E464FF0FF378BB0D2E90001DDF8E0
:1039F00060800A908A46C1F30A5505B93D46002108
:103A000008464FF00000BAF1000F00F4400005DA5C
:103A100000EB80004FF4400101EA50004FEA90595A
:103A2000B9F1010F00DDB9460A9850EA4A000ED0FC
:103A300044F61050A5F2FF3545432F14B8F1000F9E
:103A40001ED07542291E1EDDC9F100021CE0B8F12E
:103A5000010F4FF0000001D0302103E0F24305E0F8
:103A60002154401CB042FBDB30460022002121548F
:103A70000B99C1F80880C1E900200FB0BDE8F08FB4
:103A8000BD1B6D1CDEE74A4600DA694206A800F05D
:103A9000B7FA06AB93E8070003AB83E8070050468C
:103AA0000A9900F0BCFB8DE80700A0F500501F3814
:103AB00000900398002D0ADD42F21F014A46084497
:103AC000002303A90390684600F025FE09E0A0F555
:103AD00000504A461F38002303A90390684600F0AF
:103AE0002FFE8DE807000004000C03D04FF0FF30DC
:103AF000410800E01046B8F1000F03D00022009208
:103B000015461EE0751E05D4FFF722FF30326255C0
:103B10006D1EF9D5B3460122084302D000227F1C56
:103B200004E02078302801D100227F1E002A099766
:103B300084D01DE0112D07DAFFF70AFF30326255FD
:103B40006D1C50EA0102F5D1084302D00098C8B1BB
:103B50000EE00021681E05E0235C625C6354225481
:103B6000401E491C8142F7DBAB46A81B401E099052
:103B7000002004F80B000B98099AC0F80880C0E9EF
:103B8000002B7AE711264FF0000857E72DE9F04F98
:103B900088460446D21D22F0070191B0D1E9000108
:103BA000CDE90A0100F003FF02460B98C00F01D0D7
:103BB0002D2007E02068810701D52B2002E020217D
:103BC00001EAC000032A099001D0072A05DB034659
:103BD0004146204600F0C6F90BE12078800601D569
:103BE000E06900E00620B8F1650F814606D0B8F123
:103BF000660F18D0B8F1670F70D131E00020B9F12D
:103C0000110F009001DB112301E009F101030AAA61
:103C100001A90CA8FFF7E2FEDDE90C70002609F10E
:103C20000105834647E001204B4600904FF00047D6
:103C30000AAA01A90CA8FFF7D1FEDDE90DB00C9985
:103C40005D46002610B909F101000D18B9EB050019
:103C500003D4C0F1FF3609F10105A5EB09002BE003
:103C6000B9F1010F01DA4FF001090020B9F1110F8C
:103C70000090484601DD112300E003460AAA01A98D
:103C80000CA8FFF7ABFEDDE90C704D46002683461D
:103C9000207800070AD4AB4500DA5D4601A8012D63
:103CA00004DD411911F8011C302907D04F4502DA13
:103CB00017F1040F04DA012082460FE06D1EEEE7D3
:103CC000002F02DCED1B3E4403E0781CA84200DD1F
:103CD0007D1CB81B00F1010A4FF000472078000757
:103CE00003D4AA4501DB4FF0FF3A0021B7F1004FA2
:103CF0000DF143088DF8431024D002202B23002F10
:103D000001DA7F422D230A21021EA0F1010000DC0E
:103D10005FB197FBF1FC97FBF1F201FB1C7C1746AE
:103D20000CF1300C08F801CDEEE7A8F101000370AA
:103D30002188090501D5452100E06521A0F1010890
:103D400000F8011C09980FA9A1EB0807FF1D00B19D
:103D50000120411901EBEA70A1693844081A401E9C
:103D6000A0612078C00602D42046FFF739FB0998ED
:103D700028B1D4E901219047206A401C20622078B4
:103D8000C00622D52046FFF72BFB1EE0002E04DBE9
:103D9000B34502DD01A8805D00E03020D4E90121B7
:103DA0009047206A401C2062761CAAF101005FEA5D
:103DB000000A0AD100F0D2F8C0680168405CD4E97A
:103DC00001219047206A401C2062281EA5F10105B0
:103DD000DCDC07E0D4E9012118F8010B9047206AE8
:103DE000401C2062381EA7F10107F3DC2046FFF7D4
:103DF0000DFB032011B041E610B5436913B1AFF3D9
:103E0000008001E0FFF7CEFB012010BD128800F119
:103E1000240182840022C2840122EDE711684FF060
:103E2000FF32E9E72DE9F05F824615468B46002711
:103E30000AF10104B9460078302801D09DB113E0A1
:103E400014F8010B0127782803D0582801D045B178
:103E50000AE00DB1102D07D1002714F8010B102531
:103E600002E0082500E00A250026B0460EE005FB2A
:103E7000080005FB06F101271FFA80F801EB104648
:103E8000B6F5803F00D3B94614F8010B294600F07F
:103E9000A9F80028EBDABBF1000F05D00FB1641EC2
:103EA00000E05446CBF80040B9F1000F06D0FFF710
:103EB00045FA02210160C81EBDE8F09F48EA0640AD
:103EC000FAE770B516460C460546FFF71FFD036876
:103ED00093F80101012806D0FF2C0FD8185D68B1B6
:103EE00001202C7070BDD3F807013246214603F241
:103EF000071303442846BDE8704018474FF0FF30D1
:103F000070BD10B500F0FCF8BDE8104000F0F3B84B
:103F100070477546FFF7F6FCAE4605006946534606
:103F200020F00700854618B020B5FCF745FBBDE83A
:103F300020404FF000064FF000074FF000084FF010
:103F4000000B21F00701AC46ACE8C009ACE8C009A1
:103F5000ACE8C009ACE8C0098D467047004870471E
:103F6000D40000202DE9F0411F46044603260168D5
:103F7000072A01F4006004DB08B116A505E016A5C8
:103F800003E008B115A500E015A521F010002060A0
:103F9000A069C01EA0610FB1401EA0612046FFF7BE
:103FA0001FFA4FB1D4E9012138469047206A401CDE
:103FB0002062C01C206206E0206AFAE7D4E90121F1
:103FC00015F8010B9047761EF8D22046FFF71EFA2F
:103FD000BDE8F0814E414E006E616E00494E4600D4
:103FE000696E66003A2800D2303820F02002412A5B
:103FF00001D3A2F13700884201D34FF0FF30704760
:104000002DE9F047814616468AB0354878440DC8F8
:104010008DE80D0032487844801C03AC0DC884E85C
:104020000D0041F69B300844372190FBF1F290FBE4
:10403000F1F5A5F1800501FB12041B3C02D5644299
:10404000012000E00020DFF898A080460027FA4415
:10405000AAF1BE0A0EE0E0070AD03246684607EB36
:10406000470101230AEB810100F06AFB8DE807009C
:1040700064107F1C002CEED1194F7F44AE3F19E035
:10408000E80715D007EB04100DF1180A90E80E00B0
:104090008AE80E00C068F04201D1981908903246B3
:1040A000012306A903A800F04BFB03AB83E807003C
:1040B0006D10641C002DE3D14FF0010332466946B8
:1040C000B8F1000F03A802D000F025FB01E000F0DA
:1040D00037FBC9E90001C9F808200AB0BDE8F0873C
:1040E000F40A000010B50446AFF300802046BDE896
:1040F0001040FCF7BEB8002801D000F029B8704786
:1041000010B5012805D0002103A000F027F80120F8
:1041100010BD09A1F8E7000053494752544D454DE1
:104120003A204F7574206F662068656170206D6558
:104130006D6F7279000000003A2048656170206D53
:10414000656D6F727920636F72727570746564004B
:1041500001491820ABBEFEE72600020070B50546F7
:104160000C460A2000E06D1C00F052F835B12878AA
:104170000028F8D102E0641C00F04AF814B120785D
:104180000028F8D1BDE870400A2000F041B80000D6
:104190004FF0013C50F8042B51F8043B9A4221D1D6
:1041A000A2EB0C03934313EACC1317D150F8042B62
:1041B00051F8043B9A4215D1A2EB0C03934313EA46
:1041C000CC130BD150F8042B51F8043B9A4209D17F
:1041D000A2EB0C03934313EACC13DBD04FF00000A7
:1041E000704700BFD01A01BAB1FA81F101F018018D
:1041F00022FA01F0CB40C1F12001DBB2C0B2C01AFB
:104200002CFA01F3D11A914311EAC311E6D1704798
:1042100008B569468DF800000320ABBE08BD5FEA13
:10422000400C08BF91F0000F4FEA8C234FEAC122E7
:1042300043EA51514FEA1C5018BF00F5F0404FEAD5
:10424000300018BF41F000415FEA6C5C00F029804B
:10425000BCF1FF3F08BF40F080407047130C06BF21
:1042600012044FF0100C4FF0000C130E04BF12029A
:104270000CF1080C130F04BF12010CF1040C930F86
:1042800004BF92000CF1020CD30F04BF52000CF1DA
:10429000010C11464FF00002A0F11F00A0EB0C0032
:1042A000704711F0004F08BF704731F000413FF4F4
:1042B000D5AF0B0C06BF09044FF0100C4FF0000CEB
:1042C0000B0E04BF09020CF1080C0B0F04BF09010F
:1042D0000CF1040C8B0F04BF89000CF1020CCB0F06
:1042E00004BF49000CF1010CCCF12003A0EB0C0041
:1042F00022FA03F302FA0CF241EA030100F1010091
:10430000704720F07F4C80EA030023F07F47ACEB3E
:10431000070303F57C5300F0004003F1FF032DE990
:1043200080494FEA154B09B44FEA144325EA0B4E76
:1043300024EA03480FF2042606EB132749083E78C7
:104340005FEA320203FB0667C7F5000707FB06F6C4
:104350004FEA54374FEAD64606F1020607FB066CD1
:10436000CCF1005C4FEA1C472CEA074C07FB06F433
:104370000CFB06F504EB15464FEA961634BF0020F9
:104380004FF000404FEAD13706FB07FC4FEA1C4CC8
:104390000CFB0BF7D21B03FB0CF761EB07010CFBCB
:1043A0000EF7B0EB074072EB17420CFB08F734BF77
:1043B000A2EB0742B2EB074261EB17414FEA0C4414
:1043C0004FEA910706FB07FC4FEA1C4C0CFB0BF76E
:1043D000B0EBC74072EB573203FB0CF734BFA2EBD4
:1043E000C742B2EBC74261EB57310CFB0EF7B0EBA3
:1043F000C70072EB57720CFB08F734BFA2EBC70281
:10440000B2EBC70261EB5771039F4FEA816141EA4A
:10441000921104EBCC044FEAD1374FEA826206FBDB
:1044200007FC42EA90124FEA80604FEA1C4C0CFBFA
:104430000BF7D21B03FB0CF761EB07010CFB0EF72C
:10444000B0EB074072EB17420CFB08F734BFA2EB4E
:104450000742B2EB074261EB17414FEA8C554FEA36
:10446000910704EB9C2406FB07FC4FEA1C4C0CFB59
:104470000BF7B0EBC74072EB573203FB0CF734BFBE
:10448000A2EBC742B2EBC74261EB57310CFB0EF710
:10449000B0EBC70072EB57720CFB08F734BFA2EB0E
:1044A000C702B2EBC70261EB577115EB4C254FEA1F
:1044B000816141EA92114FEA82624FEAD13742EAC2
:1044C000901206FB07FC44F100044FEA80604FEABB
:1044D0001C4C0CFB0BF7D21B03FB0CF761EB070129
:1044E0000CFB0EF7B0EB074072EB17420CFB08F722
:1044F00034BFA2EB0742B2EB074261EB174115EB69
:104500001C154FEA813141EA92414FEA823242EA78
:1045100090424FEA80304FEA0C7644F1000448EABA
:1045200003434EEA0B484FF0000EB2EB080C71EB60
:10453000030724BF624639464EEB0E0E4FF0000BC8
:104540000018524149414BEB0B0BB2EB080C71EBDD
:1045500003077BF1000B24BF624639464EEB0E0E7B
:104560004FF0000B0018524149414BEB0B0BB2EBE3
:10457000080C71EB03077BF1000B24BF6246394640
:104580004EEB0E0E51EA020718BF46F0010616EB7D
:104590000E7655F1000254F1000103D5BDE8890102
:1045A000BDE80088BDE88901BDE80048B619524160
:1045B00041EB0101A3F10103704780807F7E7D7C88
:1045C0007B7A7978777676757473727171706F6EA5
:1045D0006E6D6C6C6B6A6A69686867666665646450
:1045E000636362616160605F5F5E5E5D5D5C5C5BDA
:1045F0005B5A5A5959585857575656555555545449
:10460000535352525251515050504F4F4F4E4E4DA6
:104610004D4D4C4C4C4B4B4B4A4A4A4949494848F2
:104620004847474747464646454545444444444332
:1046300043434342424242414141002B9C4630D4D5
:1046400077002BD01CB54FEA370703B44FF01000AA
:104650004FF01001BAF1000F06D0BCF1000FDCBF23
:1046600040F0080040F008014FF000000FBCBDE82A
:1046700010400BF1010BBBF1010F08BF5FEA1707F8
:1046800022BF12F1010211F101014FF0004143F18B
:10469000000300F0004043EA00007047F9D35708D8
:1046A000D0E746EA064613F1400F4FEA16461FDDF3
:1046B00013F1200FDFBF16430A46002120335B426F
:1046C000BED0C3F1200746EA064602FA07F74FEAD2
:1046D000164646EA0706C3F1200722FA03F201FA5A
:1046E00007F721FA03F14FF0000342EA0702A7E7B8
:1046F00046EA020646EA06464FEA164646EA01063A
:10470000BCBF46EA0646360C4FF000034FF00002ED
:104710004FF0000194E72DE9804C9A46934670B41F
:1047200091E8380007C831EA400C48BF34EA430C2E
:1047300003D5FFF7E6FDFFF780FFF0BCBDE8008C76
:104740002DE9804C9A46934670B491E8380007C82A
:1047500010F0804F08BF13F0804F03D100F005F830
:10476000FFF76BFFF0BCBDE8008C20F07F4780EACC
:10477000030023F07F4C07EB0C03A3F57C5300F000
:104780000040A3F1FE0392F0000F00F0B38095F01B
:10479000000F00F077802DE901494FEA11404FEA00
:1047A000144621EA004800FB06FC24EA064708FB01
:1047B00006F607FB08F800FB07F718EB06484CEB7A
:1047C000164C4FEA124B18EB07484FEA15464CEBD4
:1047D000174022EA0B4E0BFB06FC25EA06470EFBB0
:1047E00006F607FB0EFE0BFB07F71EEB064E4CEB27
:1047F000164C4FF000061EEB074E4CEB174B18EB18
:104800000B0840F1000018EB0E0B58EB000840F1CC
:1048100000008F1A4FF000013CBFC943661B14BF54
:10482000B5EB040C00213CBFC943F61B4FEA17440B
:104830004EEA8E0E27EA04454FEA1C4704FB076246
:104840002CEA074C05FB07F70CFB05F604FB0CFCF8
:1048500016EB074642EB174216EB0C4642EB1C42A6
:104860001BEB060658EB0202414146EA9E0601D5C3
:10487000BDE80189B619524141EB0101A3F10103E1
:10488000BDE801894FEA14454FEA114724EA05467D
:1048900021EA074C05FB07F406FB07F70CFB06F1C2
:1048A00005FB0CFC11EB074144EB17444FEA1247A0
:1048B00011EB0C4144EB1C4422EA074C05FB07F2C8
:1048C00006FB07F70CFB06F605FB0CFC16EB074690
:1048D00042EB174216EB0C4642EB1C456A1854F1AA
:1048E000000148BF7047B619524141EB0101A3F1E5
:1048F0000103704795F0000F37D04FEA11424FEA9D
:10490000144721EA024624EA074C02FB07F106FBA2
:1049100007F70CFB06F402FB0CFC14EB074441EB1D
:1049200017414FEA154714EB0C4441EB1C4125EAB3
:10493000074C02FB07F506FB07F70CFB06F602FB2C
:104940000CFC16EB074645EB174516EB0C4645EB02
:104950001C42121951F1000148BF7047B61952416B
:1049600041EB0101A3F1010370474FEA14454FEAFF
:10497000114724EA054621EA074C05FB07F106FB2F
:1049800007F70CFB06F24FF0000605FB0CFC12EBE0
:10499000074241EB174112EB0C4251EB1C4148BF5F
:1049A0007047921841EB0101A3F1010370474900E0
:1049B00050EAC12018BF04204A0D18BF40F0010082
:1049C00040F2FF72B2EB515F08BF40F002000128D5
:1049D00008BF0520704730380A2801D201207047EF
:1049E0000020704710B500290AD00878002807D0A9
:1049F00005487844FFF7CCFB002801D0002010BD0B
:104A00000248784410BD0000560100004E0100002D
:104A100010B500290AD00878002807D00548784446
:104A2000FFF7B6FB002801D0002010BD02487844F3
:104A300010BD00003A02000032020000FFF7A6B8E5
:104A40001C4B0008040000080000000000000002E9
:104A50000001000010000000000000000000000045
:104A600030313233343536373839414243444546A4
:104A7000403058003031323334353637383961629E
:104A8000636465664030780002400000000000A0CA
:104A90000000000005400000000000C80000000009
:104AA0000C4000000000409C000000001940000085
:104AB0000020BCBE0000000034400000BFC91B8EB7
:104AC00000000004B5400000504BCFD06607E2CF95
:104AD000010000006C4100003E8251AADFEEA734C5
:104AE00001000000D9420000DCB5A0E23A301F9777
:104AF000FFFFFFFFB4450000FD25A0C8E9A3C14F9B
:104B0000FFFFFFFFFF3F00000000008000000000EB
:104B1000FF3F000000000080000000006B796C691E
:104B20006E426F6172640000744C00080000002047
:104B3000340000006C010008A84C0008340000207C
:104B4000E408000088010008100100004300000094
:104B5000F8FFFFFF0040404040404040404041419E
:104B60004141414040404040404040404040404042
:104B700040404040400502020202020202020202DC
:104B800002020202022020202020202020202002D9
:104B90000202020202029090909090901010101069
:104BA0001010101010101010101010101010101005
:104BB0000202020202028888888888880808080899
:104BC0000808080808080808080808080808080865
:104BD000020202024000000000000000000000008D
:104BE00000000000000000000000000000000000C5
:104BF00000000000000000000000000000000000B5
:104C000000000000000000000000000000000000A4
:104C10000000000000000000000000000000000094
:104C20000000000000000000000000000000000084
:104C30000000000000000000000000000000000074
:104C40000000000000000000000000000000000064
:104C500000000000000000001C00000043000000F5
:104C6000F8FFFFFF0C0000000E0000000F00000026
:104C70002E00000000A24A04000000000000000016
:104C800001020304060708090000000001020304F2
:104C900001020304060708090204060800000000D8
:084CA00000000000000000000C
:0400000508000131BD
:00000001FF
